:1000000012C021C020C01FC01EC01DC01CC01BC00C
:100010001AC019C018C017C016C015C014C013C02C
:1000200012C011C010C011241FBECFE5D4E0DEBF46
:10003000CDBF20E0A0E6B0E001C01D92A236B2071D
:10004000E1F702D02FC0DCCF8FEF81BB12BA85E081
:1000500083BF12BE82B78F3F51F4809160009091B0
:1000600061000196909361008093600012BE8091C0
:100070006000909161000A9711F486E082BB809144
:10008000600090916100449711F48FEF82BB8091E2
:100090006000909161004597ECF21092610010921F
:0800A0006000D8CFF894FFCFF7
:00000001FF
