:1000000012C019C018C017C016C015C014C013C044
:1000100012C011C010C00FC00EC00DC00CC00BC06C
:100020000AC009C008C011241FBECFE5D4E0DEBF5E
:10003000CDBF02D02DC0E4CF8FEF87BB8FE088BB50
:100040002FE738E391E0215030409040E1F700C0C5
:10005000000018BA2FE738E391E02150304090407B
:10006000E1F700C0000088BB2FE33DE083E02150B2
:1000700030408040E1F700C0000018BA9FE32DE057
:1000800033E0915020403040E1F700C00000D6CF6F
:04009000F894FFCF12
:00000001FF
