S00E0000427574746F6E2E737265639A
S113000012C02CC02BC02AC029C028C027C026C0BB
S113001025C06BC023C022C021C020C01FC01EC089
S11300201DC01CC01BC011241FBECFE5D4E0DEBF21
S1130030CDBF10E0A0E6B0E0E0E2F2E002C005903F
S11300400D92A437B107D9F720E0A4E7B0E001C0CE
S11300501D92AD37B207E1F792D0E0C0D1CFCF9374
S1130060DF93AC01EC01D695C795D695C7959E0153
S1130070ABE7B4E1C7D0FC01F695E795F0937A00BD
S1130080E093790024E62E9FC0012F9F900D112448
S11300909A01281B390BADECBCECB4D0969587952E
S11300A09695879596958795909378008093770099
S11300B09A01A8D096958795969587959695879554
S11300C09C01220F331F880F991F880F991F880FD7
S11300D0991F820F931F9A01281B390B30937600C6
S11300E020937500DF91CF9108951F920F920FB660
S11300F00F9211248F93EF93FF93809174008130BA
S113010061F48EE088BBE0917900F0917A00EE0F03
S1130110FF1FE05AFF4F808182BB809174008230C0
S113012061F48DE088BBE0917700F0917800EE0FE8
S1130130FF1FE05AFF4F808182BB8091740083309F
S113014061F48BE088BBE0917500F0917600EE0FCE
S1130150FF1FE05AFF4F808182BB809174008F5F44
S113016080937400843018F081E080937400FF91D0
S1130170EF918F910F900FBE0F901F9018958FEFF6
S113018081BB87E087BB84B38F7C84BB85B38063EA
S113019085BB83B7826083BF83B78A7F83BF89B7F8
S11301A0816089BF12BE789480917B0090917C001D
S11301B056DF9D9912C080917B0090917C0001963E
S11301C090937C0080937B002FE58AEE90E0215091
S11301D080409040E1F700C000009C99E5CF8091F9
S11301E07B0090917C00019790937C0080937B002E
S11301F02FE58AEE90E0215080409040E1F700C066
S11302000000D2CFA29FB001B39FC001A39F01D031
S1130210B29F700D811D1124911D0895F894FFCF94
S113022040FF79FF24FF30FF19FF12FF02FF78FF20
S107023000FF10FFB8
S9030000FC
